{
  "contractName": "Dex",
  "abi": [
    {
      "inputs": [],
      "stateMutability": "nonpayable",
      "type": "constructor"
    },
    {
      "anonymous": false,
      "inputs": [
        {
          "indexed": false,
          "internalType": "uint256",
          "name": "tradeId",
          "type": "uint256"
        },
        {
          "indexed": false,
          "internalType": "uint256",
          "name": "orderId",
          "type": "uint256"
        },
        {
          "indexed": true,
          "internalType": "bytes32",
          "name": "ticker",
          "type": "bytes32"
        },
        {
          "indexed": true,
          "internalType": "address",
          "name": "trader1",
          "type": "address"
        },
        {
          "indexed": true,
          "internalType": "address",
          "name": "trader2",
          "type": "address"
        },
        {
          "indexed": false,
          "internalType": "uint256",
          "name": "amount",
          "type": "uint256"
        },
        {
          "indexed": false,
          "internalType": "uint256",
          "name": "price",
          "type": "uint256"
        },
        {
          "indexed": false,
          "internalType": "uint256",
          "name": "date",
          "type": "uint256"
        }
      ],
      "name": "NewTrade",
      "type": "event"
    },
    {
      "inputs": [],
      "name": "admin",
      "outputs": [
        {
          "internalType": "address",
          "name": "",
          "type": "address"
        }
      ],
      "stateMutability": "view",
      "type": "function",
      "constant": true
    },
    {
      "inputs": [],
      "name": "nextOrderId",
      "outputs": [
        {
          "internalType": "uint256",
          "name": "",
          "type": "uint256"
        }
      ],
      "stateMutability": "view",
      "type": "function",
      "constant": true
    },
    {
      "inputs": [],
      "name": "nextTradeId",
      "outputs": [
        {
          "internalType": "uint256",
          "name": "",
          "type": "uint256"
        }
      ],
      "stateMutability": "view",
      "type": "function",
      "constant": true
    },
    {
      "inputs": [
        {
          "internalType": "bytes32",
          "name": "",
          "type": "bytes32"
        },
        {
          "internalType": "uint256",
          "name": "",
          "type": "uint256"
        },
        {
          "internalType": "uint256",
          "name": "",
          "type": "uint256"
        }
      ],
      "name": "orderBook",
      "outputs": [
        {
          "internalType": "uint256",
          "name": "id",
          "type": "uint256"
        },
        {
          "internalType": "address",
          "name": "trader",
          "type": "address"
        },
        {
          "internalType": "enum Dex.Side",
          "name": "side",
          "type": "uint8"
        },
        {
          "internalType": "bytes32",
          "name": "ticker",
          "type": "bytes32"
        },
        {
          "internalType": "uint256",
          "name": "amount",
          "type": "uint256"
        },
        {
          "internalType": "uint256",
          "name": "filled",
          "type": "uint256"
        },
        {
          "internalType": "uint256",
          "name": "price",
          "type": "uint256"
        },
        {
          "internalType": "uint256",
          "name": "date",
          "type": "uint256"
        }
      ],
      "stateMutability": "view",
      "type": "function",
      "constant": true
    },
    {
      "inputs": [
        {
          "internalType": "uint256",
          "name": "",
          "type": "uint256"
        }
      ],
      "name": "tokenList",
      "outputs": [
        {
          "internalType": "bytes32",
          "name": "",
          "type": "bytes32"
        }
      ],
      "stateMutability": "view",
      "type": "function",
      "constant": true
    },
    {
      "inputs": [
        {
          "internalType": "bytes32",
          "name": "",
          "type": "bytes32"
        }
      ],
      "name": "tokens",
      "outputs": [
        {
          "internalType": "bytes32",
          "name": "ticker",
          "type": "bytes32"
        },
        {
          "internalType": "address",
          "name": "tokenAddress",
          "type": "address"
        }
      ],
      "stateMutability": "view",
      "type": "function",
      "constant": true
    },
    {
      "inputs": [
        {
          "internalType": "address",
          "name": "",
          "type": "address"
        },
        {
          "internalType": "bytes32",
          "name": "",
          "type": "bytes32"
        }
      ],
      "name": "traderBalances",
      "outputs": [
        {
          "internalType": "uint256",
          "name": "",
          "type": "uint256"
        }
      ],
      "stateMutability": "view",
      "type": "function",
      "constant": true
    },
    {
      "inputs": [
        {
          "internalType": "bytes32",
          "name": "ticker",
          "type": "bytes32"
        },
        {
          "internalType": "enum Dex.Side",
          "name": "side",
          "type": "uint8"
        }
      ],
      "name": "getOrders",
      "outputs": [
        {
          "components": [
            {
              "internalType": "uint256",
              "name": "id",
              "type": "uint256"
            },
            {
              "internalType": "address",
              "name": "trader",
              "type": "address"
            },
            {
              "internalType": "enum Dex.Side",
              "name": "side",
              "type": "uint8"
            },
            {
              "internalType": "bytes32",
              "name": "ticker",
              "type": "bytes32"
            },
            {
              "internalType": "uint256",
              "name": "amount",
              "type": "uint256"
            },
            {
              "internalType": "uint256",
              "name": "filled",
              "type": "uint256"
            },
            {
              "internalType": "uint256",
              "name": "price",
              "type": "uint256"
            },
            {
              "internalType": "uint256",
              "name": "date",
              "type": "uint256"
            }
          ],
          "internalType": "struct Dex.Order[]",
          "name": "",
          "type": "tuple[]"
        }
      ],
      "stateMutability": "view",
      "type": "function",
      "constant": true
    },
    {
      "inputs": [],
      "name": "getTokens",
      "outputs": [
        {
          "components": [
            {
              "internalType": "bytes32",
              "name": "ticker",
              "type": "bytes32"
            },
            {
              "internalType": "address",
              "name": "tokenAddress",
              "type": "address"
            }
          ],
          "internalType": "struct Dex.Token[]",
          "name": "",
          "type": "tuple[]"
        }
      ],
      "stateMutability": "view",
      "type": "function",
      "constant": true
    },
    {
      "inputs": [
        {
          "internalType": "bytes32",
          "name": "ticker",
          "type": "bytes32"
        },
        {
          "internalType": "address",
          "name": "tokenAddress",
          "type": "address"
        }
      ],
      "name": "addToken",
      "outputs": [],
      "stateMutability": "nonpayable",
      "type": "function"
    },
    {
      "inputs": [
        {
          "internalType": "uint256",
          "name": "amount",
          "type": "uint256"
        },
        {
          "internalType": "bytes32",
          "name": "ticker",
          "type": "bytes32"
        }
      ],
      "name": "deposit",
      "outputs": [],
      "stateMutability": "nonpayable",
      "type": "function"
    },
    {
      "inputs": [
        {
          "internalType": "uint256",
          "name": "amount",
          "type": "uint256"
        },
        {
          "internalType": "bytes32",
          "name": "ticker",
          "type": "bytes32"
        }
      ],
      "name": "withdraw",
      "outputs": [],
      "stateMutability": "nonpayable",
      "type": "function"
    },
    {
      "inputs": [
        {
          "internalType": "bytes32",
          "name": "ticker",
          "type": "bytes32"
        },
        {
          "internalType": "uint256",
          "name": "amount",
          "type": "uint256"
        },
        {
          "internalType": "uint256",
          "name": "price",
          "type": "uint256"
        },
        {
          "internalType": "enum Dex.Side",
          "name": "side",
          "type": "uint8"
        }
      ],
      "name": "createLimitOrder",
      "outputs": [],
      "stateMutability": "nonpayable",
      "type": "function"
    },
    {
      "inputs": [
        {
          "internalType": "bytes32",
          "name": "ticker",
          "type": "bytes32"
        },
        {
          "internalType": "uint256",
          "name": "amount",
          "type": "uint256"
        },
        {
          "internalType": "enum Dex.Side",
          "name": "side",
          "type": "uint8"
        }
      ],
      "name": "createMarketOrder",
      "outputs": [],
      "stateMutability": "nonpayable",
      "type": "function"
    }
  ],
  "bytecode": "0x608060405234801561001057600080fd5b5033600460006101000a81548173ffffffffffffffffffffffffffffffffffffffff021916908373ffffffffffffffffffffffffffffffffffffffff16021790555061347e806100616000396000f3fe608060405234801561001057600080fd5b50600436106100ea5760003560e01c80639776aacf1161008c578063aa6ca80811610066578063aa6ca80814610277578063c9630cb014610295578063d9c0c950146102b1578063f851a440146102cd576100ea565b80639776aacf1461020f5780639ead72221461022b578063a8d2021a1461025b576100ea565b806372ce957e116100c857806372ce957e146101745780637f2c6246146101a4578063813ad083146101c0578063904194a3146101de576100ea565b80630bb431b6146100ef5780632a58b3301461012657806346e9658b14610144575b600080fd5b61010960048036036101049190810190612984565b6102eb565b60405161011d98979695949392919061317f565b60405180910390f35b61012e610387565b60405161013b9190613164565b60405180910390f35b61015e600480360361015991908101906128f9565b61038d565b60405161016b9190612fba565b60405180910390f35b61018e6004803603610189919081019061282f565b6104dc565b60405161019b9190613164565b60405180910390f35b6101be60048036036101b99190810190612935565b610501565b005b6101c86115db565b6040516101d59190613164565b60405180910390f35b6101f860048036036101f39190810190612894565b6115e1565b604051610206929190613019565b60405180910390f35b610229600480360361022491908101906128bd565b611625565b005b61024560048036036102409190810190612a36565b611773565b6040516102529190612ffe565b60405180910390f35b61027560048036036102709190810190612a5f565b611794565b005b61027f611a4c565b60405161028c9190612fdc565b60405180910390f35b6102af60048036036102aa9190810190612a5f565b611b73565b005b6102cb60048036036102c691908101906129d3565b611d9a565b005b6102d561259a565b6040516102e29190612f3f565b60405180910390f35b6003602052826000526040600020602052816000526040600020818154811061031057fe5b906000526020600020906007020160009250925050508060000154908060010160009054906101000a900473ffffffffffffffffffffffffffffffffffffffff16908060010160149054906101000a900460ff16908060020154908060030154908060040154908060050154908060060154905088565b60055481565b60606003600084815260200190815260200160002060008360018111156103b057fe5b8152602001908152602001600020805480602002602001604051908101604052809291908181526020016000905b828210156104d0578382906000526020600020906007020160405180610100016040529081600082015481526020016001820160009054906101000a900473ffffffffffffffffffffffffffffffffffffffff1673ffffffffffffffffffffffffffffffffffffffff1673ffffffffffffffffffffffffffffffffffffffff1681526020016001820160149054906101000a900460ff16600181111561048057fe5b600181111561048b57fe5b815260200160028201548152602001600382015481526020016004820154815260200160058201548152602001600682015481525050815260200190600101906103de565b50505050905092915050565b6002602052816000526040600020602052806000526040600020600091509150505481565b82600073ffffffffffffffffffffffffffffffffffffffff1660008083815260200190815260200160002060010160009054906101000a900473ffffffffffffffffffffffffffffffffffffffff1673ffffffffffffffffffffffffffffffffffffffff1614156105a7576040517f08c379a000000000000000000000000000000000000000000000000000000000815260040161059e90613144565b60405180910390fd5b837f444149000000000000000000000000000000000000000000000000000000000081141561060b576040517f08c379a0000000000000000000000000000000000000000000000000000000008152600401610602906130e4565b60405180910390fd5b60018081111561061757fe5b83600181111561062357fe5b14156106bd5783600260003373ffffffffffffffffffffffffffffffffffffffff1673ffffffffffffffffffffffffffffffffffffffff16815260200190815260200160002060008781526020019081526020016000205410156106bc576040517f08c379a00000000000000000000000000000000000000000000000000000000081526004016106b390613124565b60405180910390fd5b5b60006003600087815260200190815260200160002060008060018111156106e057fe5b8660018111156106ec57fe5b146106f85760006106fb565b60015b600181111561070657fe5b815260200190815260200160002090506000808690505b8280549050821080156107305750600081115b1561139c57600061078484848154811061074657fe5b90600052602060002090600702016004015485858154811061076457fe5b9060005260206000209060070201600301546125c090919063ffffffff16565b905060008183116107955782610797565b815b90506107ac81846125c090919063ffffffff16565b92506107de818686815481106107be57fe5b90600052602060002090600702016004015461260a90919063ffffffff16565b8585815481106107ea57fe5b9060005260206000209060070201600401819055503373ffffffffffffffffffffffffffffffffffffffff1685858154811061082257fe5b906000526020600020906007020160010160009054906101000a900473ffffffffffffffffffffffffffffffffffffffff1673ffffffffffffffffffffffffffffffffffffffff168b7fdb0c486e680ba8026643e6a85f8d157b5e7bcd4b32b54d564542570a9eb2041660065489898154811061089b57fe5b906000526020600020906007020160000154868b8b815481106108ba57fe5b906000526020600020906007020160050154426040516108de9594939291906131fd565b60405180910390a46001808111156108f257fe5b8860018111156108fe57fe5b1415610db35761096781600260003373ffffffffffffffffffffffffffffffffffffffff1673ffffffffffffffffffffffffffffffffffffffff16815260200190815260200160002060008d8152602001908152602001600020546125c090919063ffffffff16565b600260003373ffffffffffffffffffffffffffffffffffffffff1673ffffffffffffffffffffffffffffffffffffffff16815260200190815260200160002060008c815260200190815260200160002081905550610a6d6109ee8686815481106109cd57fe5b9060005260206000209060070201600501548361265f90919063ffffffff16565b600260003373ffffffffffffffffffffffffffffffffffffffff1673ffffffffffffffffffffffffffffffffffffffff16815260200190815260200160002060007f444149000000000000000000000000000000000000000000000000000000000081526020019081526020016000205461260a90919063ffffffff16565b600260003373ffffffffffffffffffffffffffffffffffffffff1673ffffffffffffffffffffffffffffffffffffffff16815260200190815260200160002060007f4441490000000000000000000000000000000000000000000000000000000000815260200190815260200160002081905550610b818160026000888881548110610af557fe5b906000526020600020906007020160010160009054906101000a900473ffffffffffffffffffffffffffffffffffffffff1673ffffffffffffffffffffffffffffffffffffffff1673ffffffffffffffffffffffffffffffffffffffff16815260200190815260200160002060008d81526020019081526020016000205461260a90919063ffffffff16565b60026000878781548110610b9157fe5b906000526020600020906007020160010160009054906101000a900473ffffffffffffffffffffffffffffffffffffffff1673ffffffffffffffffffffffffffffffffffffffff1673ffffffffffffffffffffffffffffffffffffffff16815260200190815260200160002060008c815260200190815260200160002081905550610d01610c45868681548110610c2457fe5b9060005260206000209060070201600501548361265f90919063ffffffff16565b60026000888881548110610c5557fe5b906000526020600020906007020160010160009054906101000a900473ffffffffffffffffffffffffffffffffffffffff1673ffffffffffffffffffffffffffffffffffffffff1673ffffffffffffffffffffffffffffffffffffffff16815260200190815260200160002060007f44414900000000000000000000000000000000000000000000000000000000008152602001908152602001600020546125c090919063ffffffff16565b60026000878781548110610d1157fe5b906000526020600020906007020160010160009054906101000a900473ffffffffffffffffffffffffffffffffffffffff1673ffffffffffffffffffffffffffffffffffffffff1673ffffffffffffffffffffffffffffffffffffffff16815260200190815260200160002060007f44414900000000000000000000000000000000000000000000000000000000008152602001908152602001600020819055505b60006001811115610dc057fe5b886001811115610dcc57fe5b141561136357610e02858581548110610de157fe5b9060005260206000209060070201600501548261265f90919063ffffffff16565b600260003373ffffffffffffffffffffffffffffffffffffffff1673ffffffffffffffffffffffffffffffffffffffff16815260200190815260200160002060007f44414900000000000000000000000000000000000000000000000000000000008152602001908152602001600020541015610eb4576040517f08c379a0000000000000000000000000000000000000000000000000000000008152600401610eab90613064565b60405180910390fd5b610f1781600260003373ffffffffffffffffffffffffffffffffffffffff1673ffffffffffffffffffffffffffffffffffffffff16815260200190815260200160002060008d81526020019081526020016000205461260a90919063ffffffff16565b600260003373ffffffffffffffffffffffffffffffffffffffff1673ffffffffffffffffffffffffffffffffffffffff16815260200190815260200160002060008c81526020019081526020016000208190555061101d610f9e868681548110610f7d57fe5b9060005260206000209060070201600501548361265f90919063ffffffff16565b600260003373ffffffffffffffffffffffffffffffffffffffff1673ffffffffffffffffffffffffffffffffffffffff16815260200190815260200160002060007f44414900000000000000000000000000000000000000000000000000000000008152602001908152602001600020546125c090919063ffffffff16565b600260003373ffffffffffffffffffffffffffffffffffffffff1673ffffffffffffffffffffffffffffffffffffffff16815260200190815260200160002060007f444149000000000000000000000000000000000000000000000000000000000081526020019081526020016000208190555061113181600260008888815481106110a557fe5b906000526020600020906007020160010160009054906101000a900473ffffffffffffffffffffffffffffffffffffffff1673ffffffffffffffffffffffffffffffffffffffff1673ffffffffffffffffffffffffffffffffffffffff16815260200190815260200160002060008d8152602001908152602001600020546125c090919063ffffffff16565b6002600087878154811061114157fe5b906000526020600020906007020160010160009054906101000a900473ffffffffffffffffffffffffffffffffffffffff1673ffffffffffffffffffffffffffffffffffffffff1673ffffffffffffffffffffffffffffffffffffffff16815260200190815260200160002060008c8152602001908152602001600020819055506112b16111f58686815481106111d457fe5b9060005260206000209060070201600501548361265f90919063ffffffff16565b6002600088888154811061120557fe5b906000526020600020906007020160010160009054906101000a900473ffffffffffffffffffffffffffffffffffffffff1673ffffffffffffffffffffffffffffffffffffffff1673ffffffffffffffffffffffffffffffffffffffff16815260200190815260200160002060007f444149000000000000000000000000000000000000000000000000000000000081526020019081526020016000205461260a90919063ffffffff16565b600260008787815481106112c157fe5b906000526020600020906007020160010160009054906101000a900473ffffffffffffffffffffffffffffffffffffffff1673ffffffffffffffffffffffffffffffffffffffff1673ffffffffffffffffffffffffffffffffffffffff16815260200190815260200160002060007f44414900000000000000000000000000000000000000000000000000000000008152602001908152602001600020819055505b611379600160065461260a90919063ffffffff16565b60068190555061139360018561260a90919063ffffffff16565b9350505061071d565b600091505b8280549050821080156113ed57508282815481106113bb57fe5b9060005260206000209060070201600301548383815481106113d957fe5b906000526020600020906007020160040154145b156115d15760008290505b60018480549050038110156115275783600182018154811061141657fe5b906000526020600020906007020184828154811061143057fe5b9060005260206000209060070201600082015481600001556001820160009054906101000a900473ffffffffffffffffffffffffffffffffffffffff168160010160006101000a81548173ffffffffffffffffffffffffffffffffffffffff021916908373ffffffffffffffffffffffffffffffffffffffff1602179055506001820160149054906101000a900460ff168160010160146101000a81548160ff021916908360018111156114e057fe5b0217905550600282015481600201556003820154816003015560048201548160040155600582015481600501556006820154816006015590505080806001019150506113f8565b508280548061153257fe5b60019003818190600052602060002090600702016000808201600090556001820160006101000a81549073ffffffffffffffffffffffffffffffffffffffff02191690556001820160146101000a81549060ff021916905560028201600090556003820160009055600482016000905560058201600090556006820160009055505090556115ca60018361260a90919063ffffffff16565b91506113a1565b5050505050505050565b60065481565b60006020528060005260406000206000915090508060000154908060010160009054906101000a900473ffffffffffffffffffffffffffffffffffffffff16905082565b600460009054906101000a900473ffffffffffffffffffffffffffffffffffffffff1673ffffffffffffffffffffffffffffffffffffffff163373ffffffffffffffffffffffffffffffffffffffff16146116b5576040517f08c379a00000000000000000000000000000000000000000000000000000000081526004016116ac906130c4565b60405180910390fd5b60405180604001604052808381526020018273ffffffffffffffffffffffffffffffffffffffff168152506000808481526020019081526020016000206000820151816000015560208201518160010160006101000a81548173ffffffffffffffffffffffffffffffffffffffff021916908373ffffffffffffffffffffffffffffffffffffffff16021790555090505060018290806001815401808255809150506001900390600052602060002001600090919091909150555050565b6001818154811061178057fe5b906000526020600020016000915090505481565b80600073ffffffffffffffffffffffffffffffffffffffff1660008083815260200190815260200160002060010160009054906101000a900473ffffffffffffffffffffffffffffffffffffffff1673ffffffffffffffffffffffffffffffffffffffff16141561183a576040517f08c379a000000000000000000000000000000000000000000000000000000000815260040161183190613144565b60405180910390fd5b82600260003373ffffffffffffffffffffffffffffffffffffffff1673ffffffffffffffffffffffffffffffffffffffff16815260200190815260200160002060008481526020019081526020016000205410156118cd576040517f08c379a00000000000000000000000000000000000000000000000000000000081526004016118c4906130a4565b60405180910390fd5b61193083600260003373ffffffffffffffffffffffffffffffffffffffff1673ffffffffffffffffffffffffffffffffffffffff1681526020019081526020016000206000858152602001908152602001600020546125c090919063ffffffff16565b600260003373ffffffffffffffffffffffffffffffffffffffff1673ffffffffffffffffffffffffffffffffffffffff16815260200190815260200160002060008481526020019081526020016000208190555060008083815260200190815260200160002060010160009054906101000a900473ffffffffffffffffffffffffffffffffffffffff1673ffffffffffffffffffffffffffffffffffffffff1663a9059cbb33856040518363ffffffff1660e01b81526004016119f4929190612f91565b602060405180830381600087803b158015611a0e57600080fd5b505af1158015611a22573d6000803e3d6000fd5b505050506040513d601f19601f82011682018060405250611a46919081019061286b565b50505050565b606080600180549050604051908082528060200260200182016040528015611a8e57816020015b611a7b61272a565b815260200190600190039081611a735790505b50905060008090505b600180549050811015611b6b57604051806040016040528060008060018581548110611abf57fe5b9060005260206000200154815260200190815260200160002060000154815260200160008060018581548110611af157fe5b9060005260206000200154815260200190815260200160002060010160009054906101000a900473ffffffffffffffffffffffffffffffffffffffff1673ffffffffffffffffffffffffffffffffffffffff16815250828281518110611b5357fe5b60200260200101819052508080600101915050611a97565b508091505090565b80600073ffffffffffffffffffffffffffffffffffffffff1660008083815260200190815260200160002060010160009054906101000a900473ffffffffffffffffffffffffffffffffffffffff1673ffffffffffffffffffffffffffffffffffffffff161415611c19576040517f08c379a0000000000000000000000000000000000000000000000000000000008152600401611c1090613144565b60405180910390fd5b60008083815260200190815260200160002060010160009054906101000a900473ffffffffffffffffffffffffffffffffffffffff1673ffffffffffffffffffffffffffffffffffffffff166323b872dd3330866040518463ffffffff1660e01b8152600401611c8b93929190612f5a565b602060405180830381600087803b158015611ca557600080fd5b505af1158015611cb9573d6000803e3d6000fd5b505050506040513d601f19601f82011682018060405250611cdd919081019061286b565b50611d4183600260003373ffffffffffffffffffffffffffffffffffffffff1673ffffffffffffffffffffffffffffffffffffffff16815260200190815260200160002060008581526020019081526020016000205461260a90919063ffffffff16565b600260003373ffffffffffffffffffffffffffffffffffffffff1673ffffffffffffffffffffffffffffffffffffffff168152602001908152602001600020600084815260200190815260200160002081905550505050565b83600073ffffffffffffffffffffffffffffffffffffffff1660008083815260200190815260200160002060010160009054906101000a900473ffffffffffffffffffffffffffffffffffffffff1673ffffffffffffffffffffffffffffffffffffffff161415611e40576040517f08c379a0000000000000000000000000000000000000000000000000000000008152600401611e3790613144565b60405180910390fd5b847f4441490000000000000000000000000000000000000000000000000000000000811415611ea4576040517f08c379a0000000000000000000000000000000000000000000000000000000008152600401611e9b906130e4565b60405180910390fd5b600180811115611eb057fe5b836001811115611ebc57fe5b1415611f5a5784600260003373ffffffffffffffffffffffffffffffffffffffff1673ffffffffffffffffffffffffffffffffffffffff1681526020019081526020016000206000888152602001908152602001600020541015611f55576040517f08c379a0000000000000000000000000000000000000000000000000000000008152600401611f4c90613124565b60405180910390fd5b612020565b611f6d848661265f90919063ffffffff16565b600260003373ffffffffffffffffffffffffffffffffffffffff1673ffffffffffffffffffffffffffffffffffffffff16815260200190815260200160002060007f4441490000000000000000000000000000000000000000000000000000000000815260200190815260200160002054101561201f576040517f08c379a000000000000000000000000000000000000000000000000000000000815260040161201690613064565b60405180910390fd5b5b600060036000888152602001908152602001600020600085600181111561204357fe5b815260200190815260200160002090508060405180610100016040528060055481526020013373ffffffffffffffffffffffffffffffffffffffff16815260200186600181111561209057fe5b8152602001898152602001888152602001600081526020018781526020014281525090806001815401808255809150506001900390600052602060002090600702016000909190919091506000820151816000015560208201518160010160006101000a81548173ffffffffffffffffffffffffffffffffffffffff021916908373ffffffffffffffffffffffffffffffffffffffff16021790555060408201518160010160146101000a81548160ff0219169083600181111561215057fe5b0217905550606082015181600201556080820151816003015560a0820151816004015560c0820151816005015560e08201518160060155505060008082805490501161219d5760006121a6565b60018280549050035b90505b600081111561257457600060018111156121bf57fe5b8560018111156121cb57fe5b14801561221457508181815481106121df57fe5b90600052602060002090600702016005015482600183038154811061220057fe5b906000526020600020906007020160050154115b1561221e57612574565b60018081111561222a57fe5b85600181111561223657fe5b14801561227f575081818154811061224a57fe5b90600052602060002090600702016005015482600183038154811061226b57fe5b906000526020600020906007020160050154105b1561228957612574565b61229161275d565b8260018303815481106122a057fe5b906000526020600020906007020160405180610100016040529081600082015481526020016001820160009054906101000a900473ffffffffffffffffffffffffffffffffffffffff1673ffffffffffffffffffffffffffffffffffffffff1673ffffffffffffffffffffffffffffffffffffffff1681526020016001820160149054906101000a900460ff16600181111561233857fe5b600181111561234357fe5b815260200160028201548152602001600382015481526020016004820154815260200160058201548152602001600682015481525050905082828154811061238757fe5b90600052602060002090600702018360018403815481106123a457fe5b9060005260206000209060070201600082015481600001556001820160009054906101000a900473ffffffffffffffffffffffffffffffffffffffff168160010160006101000a81548173ffffffffffffffffffffffffffffffffffffffff021916908373ffffffffffffffffffffffffffffffffffffffff1602179055506001820160149054906101000a900460ff168160010160146101000a81548160ff0219169083600181111561245457fe5b021790555060028201548160020155600382015481600301556004820154816004015560058201548160050155600682015481600601559050508083838154811061249b57fe5b90600052602060002090600702016000820151816000015560208201518160010160006101000a81548173ffffffffffffffffffffffffffffffffffffffff021916908373ffffffffffffffffffffffffffffffffffffffff16021790555060408201518160010160146101000a81548160ff0219169083600181111561251e57fe5b0217905550606082015181600201556080820151816003015560a0820151816004015560c0820151816005015560e0820151816006015590505061256c6001836125c090919063ffffffff16565b9150506121a9565b61258a600160055461260a90919063ffffffff16565b6005819055505050505050505050565b600460009054906101000a900473ffffffffffffffffffffffffffffffffffffffff1681565b600061260283836040518060400160405280601e81526020017f536166654d6174683a207375627472616374696f6e206f766572666c6f7700008152506126cf565b905092915050565b600080828401905083811015612655576040517f08c379a000000000000000000000000000000000000000000000000000000000815260040161264c90613084565b60405180910390fd5b8091505092915050565b60008083141561267257600090506126c9565b600082840290508284828161268357fe5b04146126c4576040517f08c379a00000000000000000000000000000000000000000000000000000000081526004016126bb90613104565b60405180910390fd5b809150505b92915050565b6000838311158290612717576040517f08c379a000000000000000000000000000000000000000000000000000000000815260040161270e9190613042565b60405180910390fd5b5060008385039050809150509392505050565b604051806040016040528060008019168152602001600073ffffffffffffffffffffffffffffffffffffffff1681525090565b60405180610100016040528060008152602001600073ffffffffffffffffffffffffffffffffffffffff1681526020016000600181111561279a57fe5b815260200160008019168152602001600081526020016000815260200160008152602001600081525090565b6000813590506127d5816133dc565b92915050565b6000815190506127ea816133f3565b92915050565b6000813590506127ff8161340a565b92915050565b60008135905061281481613421565b92915050565b60008135905061282981613431565b92915050565b6000806040838503121561284257600080fd5b6000612850858286016127c6565b9250506020612861858286016127f0565b9150509250929050565b60006020828403121561287d57600080fd5b600061288b848285016127db565b91505092915050565b6000602082840312156128a657600080fd5b60006128b4848285016127f0565b91505092915050565b600080604083850312156128d057600080fd5b60006128de858286016127f0565b92505060206128ef858286016127c6565b9150509250929050565b6000806040838503121561290c57600080fd5b600061291a858286016127f0565b925050602061292b85828601612805565b9150509250929050565b60008060006060848603121561294a57600080fd5b6000612958868287016127f0565b93505060206129698682870161281a565b925050604061297a86828701612805565b9150509250925092565b60008060006060848603121561299957600080fd5b60006129a7868287016127f0565b93505060206129b88682870161281a565b92505060406129c98682870161281a565b9150509250925092565b600080600080608085870312156129e957600080fd5b60006129f7878288016127f0565b9450506020612a088782880161281a565b9350506040612a198782880161281a565b9250506060612a2a87828801612805565b91505092959194509250565b600060208284031215612a4857600080fd5b6000612a568482850161281a565b91505092915050565b60008060408385031215612a7257600080fd5b6000612a808582860161281a565b9250506020612a91858286016127f0565b9150509250929050565b6000612aa78383612e50565b6101008301905092915050565b6000612ac08383612ef2565b60408301905092915050565b612ad581613343565b82525050565b612ae4816132de565b82525050565b612af3816132de565b82525050565b6000612b0482613270565b612b0e81856132ab565b9350612b1983613250565b8060005b83811015612b4a578151612b318882612a9b565b9750612b3c83613291565b925050600181019050612b1d565b5085935050505092915050565b6000612b628261327b565b612b6c81856132bc565b9350612b7783613260565b8060005b83811015612ba8578151612b8f8882612ab4565b9750612b9a8361329e565b925050600181019050612b7b565b5085935050505092915050565b612bbe816132fc565b82525050565b612bcd816132fc565b82525050565b612bdc81613355565b82525050565b612beb81613355565b82525050565b6000612bfc82613286565b612c0681856132cd565b9350612c1681856020860161338b565b612c1f816133be565b840191505092915050565b6000612c376013836132cd565b91507f4461692062616c616e636520746f6f206c6f77000000000000000000000000006000830152602082019050919050565b6000612c77601b836132cd565b91507f536166654d6174683a206164646974696f6e206f766572666c6f7700000000006000830152602082019050919050565b6000612cb7600f836132cd565b91507f62616c616e636520746f6f206c6f7700000000000000000000000000000000006000830152602082019050919050565b6000612cf7600a836132cd565b91507f6f6e6c792061646d696e000000000000000000000000000000000000000000006000830152602082019050919050565b6000612d376010836132cd565b91507f63616e6e6f7420747261646520444149000000000000000000000000000000006000830152602082019050919050565b6000612d776021836132cd565b91507f536166654d6174683a206d756c7469706c69636174696f6e206f766572666c6f60008301527f77000000000000000000000000000000000000000000000000000000000000006020830152604082019050919050565b6000612ddd6015836132cd565b91507f746f6b656e2062616c616e636520746f6f206c6f7700000000000000000000006000830152602082019050919050565b6000612e1d6019836132cd565b91507f7468697320746f6b656e20646f6573206e6f74206578697374000000000000006000830152602082019050919050565b61010082016000820151612e676000850182612f21565b506020820151612e7a6020850182612adb565b506040820151612e8d6040850182612bd3565b506060820151612ea06060850182612bb5565b506080820151612eb36080850182612f21565b5060a0820151612ec660a0850182612f21565b5060c0820151612ed960c0850182612f21565b5060e0820151612eec60e0850182612f21565b50505050565b604082016000820151612f086000850182612bb5565b506020820151612f1b6020850182612adb565b50505050565b612f2a81613339565b82525050565b612f3981613339565b82525050565b6000602082019050612f546000830184612aea565b92915050565b6000606082019050612f6f6000830186612acc565b612f7c6020830185612aea565b612f896040830184612f30565b949350505050565b6000604082019050612fa66000830185612acc565b612fb36020830184612f30565b9392505050565b60006020820190508181036000830152612fd48184612af9565b905092915050565b60006020820190508181036000830152612ff68184612b57565b905092915050565b60006020820190506130136000830184612bc4565b92915050565b600060408201905061302e6000830185612bc4565b61303b6020830184612aea565b9392505050565b6000602082019050818103600083015261305c8184612bf1565b905092915050565b6000602082019050818103600083015261307d81612c2a565b9050919050565b6000602082019050818103600083015261309d81612c6a565b9050919050565b600060208201905081810360008301526130bd81612caa565b9050919050565b600060208201905081810360008301526130dd81612cea565b9050919050565b600060208201905081810360008301526130fd81612d2a565b9050919050565b6000602082019050818103600083015261311d81612d6a565b9050919050565b6000602082019050818103600083015261313d81612dd0565b9050919050565b6000602082019050818103600083015261315d81612e10565b9050919050565b60006020820190506131796000830184612f30565b92915050565b600061010082019050613195600083018b612f30565b6131a2602083018a612aea565b6131af6040830189612be2565b6131bc6060830188612bc4565b6131c96080830187612f30565b6131d660a0830186612f30565b6131e360c0830185612f30565b6131f060e0830184612f30565b9998505050505050505050565b600060a0820190506132126000830188612f30565b61321f6020830187612f30565b61322c6040830186612f30565b6132396060830185612f30565b6132466080830184612f30565b9695505050505050565b6000819050602082019050919050565b6000819050602082019050919050565b600081519050919050565b600081519050919050565b600081519050919050565b6000602082019050919050565b6000602082019050919050565b600082825260208201905092915050565b600082825260208201905092915050565b600082825260208201905092915050565b60006132e982613319565b9050919050565b60008115159050919050565b6000819050919050565b6000819050613314826133cf565b919050565b600073ffffffffffffffffffffffffffffffffffffffff82169050919050565b6000819050919050565b600061334e82613367565b9050919050565b600061336082613306565b9050919050565b600061337282613379565b9050919050565b600061338482613319565b9050919050565b60005b838110156133a957808201518184015260208101905061338e565b838111156133b8576000848401525b50505050565b6000601f19601f8301169050919050565b600281106133d957fe5b50565b6133e5816132de565b81146133f057600080fd5b50565b6133fc816132f0565b811461340757600080fd5b50565b613413816132fc565b811461341e57600080fd5b50565b6002811061342e57600080fd5b50565b61343a81613339565b811461344557600080fd5b5056fea26469706673582212204972e34bb91cfa99c0011f43a1ad287a8aeb297106877fac2473be54a415ac8c64736f6c63430006030033",
  "source": "pragma solidity 0.6.3;\r\n//Below solidity pragma statement (needed because we return an array of struct in function):\r\npragma experimental ABIEncoderV2;\r\n\r\nimport '@openzeppelin/contracts/token/ERC20/IERC20.sol';\r\nimport '@openzeppelin/contracts/math/SafeMath.sol';\r\n\r\ncontract Dex {\r\n    \r\n    using SafeMath for uint;\r\n    \r\n    enum Side {\r\n        BUY,\r\n        SELL\r\n    }\r\n    \r\n    struct Token{\r\n        bytes32 ticker;\r\n        address tokenAddress;\r\n    }\r\n    \r\n    struct Order{\r\n        uint id;\r\n        address trader;\r\n        Side side;\r\n        bytes32 ticker;\r\n        uint amount;\r\n        uint filled;\r\n        uint price;\r\n        uint date;\r\n    }\r\n    \r\n    mapping (bytes32 =>Token) public tokens;\r\n    bytes32 [] public tokenList;\r\n    mapping(address => mapping(bytes32 =>uint)) public traderBalances;\r\n    mapping(bytes32 => mapping(uint => Order[])) public orderBook;\r\n    address public admin;\r\n    uint public nextOrderId ;\r\n    uint public nextTradeId;\r\n    bytes32 constant DAI = bytes32('DAI'); \r\n    \r\n    event NewTrade(\r\n        uint tradeId,\r\n        uint orderId,\r\n        bytes32 indexed ticker,\r\n        address indexed trader1,\r\n        address indexed trader2,\r\n        uint amount,\r\n        uint price,\r\n        uint date\r\n    );\r\n    \r\n    \r\n    constructor() public{\r\n        admin = msg.sender;\r\n        }\r\n    \r\n    //below the constructor:\r\n    function getOrders(\r\n             bytes32 ticker, \r\n             Side side) \r\n             external \r\n             view\r\n             returns(Order[] memory) {\r\n                return orderBook[ticker][uint(side)];\r\n            }\r\n    \r\n    function getTokens() \r\n             external \r\n             view \r\n             returns(Token[] memory) {\r\n                Token[] memory _tokens = new Token[](tokenList.length);\r\n                for (uint i = 0; i < tokenList.length; i++) {\r\n                    _tokens[i] = Token(\r\n                     tokens[tokenList[i]].ticker,\r\n                     tokens[tokenList[i]].tokenAddress\r\n                     );\r\n                }\r\n                return _tokens;\r\n    }\r\n    \r\n    \r\n    \r\n    \r\n    function addToken(\r\n        bytes32 ticker,\r\n        address tokenAddress)\r\n        onlyAdmin()\r\n        external {\r\n        tokens[ticker] = Token(ticker, tokenAddress);\r\n        tokenList.push(ticker);\r\n            \r\n        }\r\n        \r\n    function deposit(\r\n            uint amount,\r\n            bytes32 ticker)\r\n            tokenExist(ticker)\r\n            external{\r\n            IERC20(tokens[ticker].tokenAddress).transferFrom(\r\n                msg.sender,\r\n                address(this),\r\n                amount\r\n                );\r\n                traderBalances[msg.sender][ticker] = traderBalances[msg.sender][ticker].add(amount);\r\n            }\r\n        \r\n    function withdraw(\r\n        uint amount,\r\n        bytes32 ticker)\r\n        tokenExist(ticker)\r\n        external{\r\n        require(traderBalances[msg.sender][ticker]>=amount,\r\n        'balance too low'\r\n        );\r\n        traderBalances[msg.sender][ticker] = traderBalances[msg.sender][ticker].sub(amount);\r\n        IERC20(tokens[ticker].tokenAddress).transfer(msg.sender, amount);\r\n        }\r\n        \r\n        \r\n        \r\n    function createLimitOrder(\r\n        bytes32 ticker,\r\n        uint amount,\r\n        uint price,\r\n        Side side)\r\n        tokenExist(ticker)\r\n        tokenIsNotDai(ticker)\r\n        external {\r\n            if (side == Side.SELL){\r\n                require(\r\n                    traderBalances[msg.sender][ticker]>= amount,\r\n                    'token balance too low'\r\n                );\r\n            } else{\r\n                require(\r\n                 traderBalances[msg.sender][DAI]>= amount.mul(price),\r\n                'Dai balance too low'\r\n                );\r\n            }\r\n            Order[] storage orders = orderBook[ticker][uint(side)];\r\n            orders.push(Order(\r\n                nextOrderId,\r\n                msg.sender,\r\n                side,\r\n                ticker,\r\n                amount,\r\n                0,\r\n                price,\r\n                now\r\n            ));\r\n            \r\n            uint i = orders.length > 0 ? orders.length-1 : 0;\r\n            while (i>0) {\r\n                if(side == Side.BUY && orders[i-1].price > orders[i].price){\r\n                   break;\r\n                }\r\n                if(side == Side.SELL && orders[i-1].price < orders[i].price){\r\n                   break;\r\n                }\r\n                Order memory order = orders[i-1];\r\n                orders[i - 1] = orders[i];\r\n                orders[i] = order;\r\n                i = i.sub(1);\r\n            }\r\n            nextOrderId = nextOrderId.add(1);\r\n        }    \r\n            \r\n        \r\n        function createMarketOrder(\r\n            bytes32 ticker,\r\n            uint amount,\r\n            Side side)\r\n            tokenExist(ticker)\r\n            tokenIsNotDai(ticker)\r\n            external{\r\n            if(side == Side.SELL){\r\n                require(\r\n                    traderBalances[msg.sender][ticker]>= amount,\r\n                    'token balance too low'\r\n                );               \r\n            }\r\n            Order[] storage orders = orderBook[ticker][uint(side==Side.BUY? Side.SELL : Side.BUY)];\r\n            uint i;\r\n            uint remaining = amount;\r\n            \r\n            while(i< orders.length && remaining > 0) {\r\n                uint available = orders[i].amount.sub(orders[i].filled);\r\n                uint matched = (remaining>available) ? available : remaining;\r\n                remaining = remaining.sub(matched);\r\n                orders[i].filled = orders[i].filled.add(matched);\r\n                emit NewTrade(\r\n                    nextTradeId,\r\n                    orders[i].id,\r\n                    ticker,\r\n                    orders[i].trader,\r\n                    msg.sender,\r\n                    matched,\r\n                    orders[i].price,\r\n                    now\r\n                );\r\n                if(side==Side.SELL){\r\n                    traderBalances[msg.sender][ticker] = traderBalances[msg.sender][ticker].sub(matched);\r\n\t            traderBalances[msg.sender][DAI] = traderBalances[msg.sender][DAI].add(matched.mul(orders[i].price));\r\n                    traderBalances[orders[i].trader][ticker] =traderBalances[orders[i].trader][ticker].add(matched);\r\n                    traderBalances[orders[i].trader][DAI] = traderBalances[orders[i].trader][DAI].sub(matched.mul(orders[i].price));\r\n                }\r\n                if(side==Side.BUY){\r\n                    require(traderBalances[msg.sender][DAI]>= matched.mul(orders[i].price),\r\n                             'Dai balance too low'\r\n                            );\r\n                            \r\n                    traderBalances[msg.sender][ticker] = traderBalances[msg.sender][ticker].add(matched);\r\n                    traderBalances[msg.sender][DAI] = traderBalances[msg.sender][DAI].sub(matched.mul(orders[i].price));\r\n                    traderBalances[orders[i].trader][ticker] =traderBalances[orders[i].trader][ticker].sub(matched);\r\n                    traderBalances[orders[i].trader][DAI] = traderBalances[orders[i].trader][DAI].add(matched.mul(orders[i].price));\r\n                }\r\n                nextTradeId = nextTradeId.add(1);\r\n                i = i.add(1);\r\n            }\r\n            \r\n            i = 0;\r\n            while(i< orders.length && orders[i].filled == orders[i].amount){\r\n                for(uint j = i; j <orders.length -1; j++){\r\n                    orders[j] = orders[j + 1];\r\n                }\r\n                orders.pop();\r\n                i = i.add(1);\r\n            }\r\n        }\r\n            \r\n    \r\n    modifier tokenIsNotDai(bytes32 ticker){\r\n        require(ticker!= DAI, 'cannot trade DAI');\r\n        _;\r\n    }\r\n        \r\n    modifier tokenExist (bytes32 ticker){\r\n        require(\r\n                 tokens[ticker].tokenAddress != address(0), \r\n                 'this token does not exist'\r\n                );\r\n                _;\r\n    }\r\n        \r\n    modifier onlyAdmin(){\r\n        require(msg.sender == admin, 'only admin');\r\n        _;\r\n    }\r\n}",
  "sourcePath": "C:/Users/Zulfikar/dapps/program2/blockchain-masterclass/dex/contracts/Dex.sol",
  "compiler": {
    "name": "solc",
    "version": "0.6.3+commit.8dda9521.Emscripten.clang"
  },
  "schemaVersion": "3.3.1",
  "updatedAt": "2020-10-18T08:50:09.482Z",
  "networkType": "ethereum",
  "devdoc": {
    "methods": {}
  },
  "userdoc": {
    "methods": {}
  }
}